{
  "_format": "hh-sol-artifact-1",
  "contractName": "Vote",
  "sourceName": "contracts/Vote.sol",
  "abi": [
    {
      "inputs": [],
      "stateMutability": "nonpayable",
      "type": "constructor"
    },
    {
      "inputs": [
        {
          "internalType": "uint256",
          "name": "",
          "type": "uint256"
        }
      ],
      "name": "candidateArr",
      "outputs": [
        {
          "internalType": "string",
          "name": "name",
          "type": "string"
        },
        {
          "internalType": "string",
          "name": "party",
          "type": "string"
        },
        {
          "internalType": "uint256",
          "name": "age",
          "type": "uint256"
        },
        {
          "internalType": "string",
          "name": "gender",
          "type": "string"
        },
        {
          "internalType": "uint256",
          "name": "candidateId",
          "type": "uint256"
        },
        {
          "internalType": "address",
          "name": "candidateAddress",
          "type": "address"
        },
        {
          "internalType": "uint256",
          "name": "votes",
          "type": "uint256"
        }
      ],
      "stateMutability": "view",
      "type": "function"
    },
    {
      "inputs": [],
      "name": "candidateList",
      "outputs": [
        {
          "components": [
            {
              "internalType": "string",
              "name": "name",
              "type": "string"
            },
            {
              "internalType": "string",
              "name": "party",
              "type": "string"
            },
            {
              "internalType": "uint256",
              "name": "age",
              "type": "uint256"
            },
            {
              "internalType": "string",
              "name": "gender",
              "type": "string"
            },
            {
              "internalType": "uint256",
              "name": "candidateId",
              "type": "uint256"
            },
            {
              "internalType": "address",
              "name": "candidateAddress",
              "type": "address"
            },
            {
              "internalType": "uint256",
              "name": "votes",
              "type": "uint256"
            }
          ],
          "internalType": "struct Vote.Candidate[]",
          "name": "",
          "type": "tuple[]"
        }
      ],
      "stateMutability": "view",
      "type": "function"
    },
    {
      "inputs": [
        {
          "internalType": "string",
          "name": "_name",
          "type": "string"
        },
        {
          "internalType": "string",
          "name": "_party",
          "type": "string"
        },
        {
          "internalType": "uint256",
          "name": "_age",
          "type": "uint256"
        },
        {
          "internalType": "string",
          "name": "_gender",
          "type": "string"
        }
      ],
      "name": "candidateRegister",
      "outputs": [],
      "stateMutability": "nonpayable",
      "type": "function"
    },
    {
      "inputs": [
        {
          "internalType": "uint256",
          "name": "_id",
          "type": "uint256"
        }
      ],
      "name": "deleteCandidate",
      "outputs": [],
      "stateMutability": "nonpayable",
      "type": "function"
    },
    {
      "inputs": [
        {
          "internalType": "uint256",
          "name": "_id",
          "type": "uint256"
        }
      ],
      "name": "deleteVoter",
      "outputs": [],
      "stateMutability": "nonpayable",
      "type": "function"
    },
    {
      "inputs": [],
      "name": "emergency",
      "outputs": [],
      "stateMutability": "nonpayable",
      "type": "function"
    },
    {
      "inputs": [],
      "name": "endTime",
      "outputs": [
        {
          "internalType": "uint256",
          "name": "",
          "type": "uint256"
        }
      ],
      "stateMutability": "view",
      "type": "function"
    },
    {
      "inputs": [
        {
          "internalType": "address",
          "name": "_candidateO",
          "type": "address"
        }
      ],
      "name": "getCandidateInfo",
      "outputs": [
        {
          "internalType": "string",
          "name": "",
          "type": "string"
        },
        {
          "internalType": "string",
          "name": "",
          "type": "string"
        },
        {
          "internalType": "uint256",
          "name": "",
          "type": "uint256"
        },
        {
          "internalType": "string",
          "name": "",
          "type": "string"
        },
        {
          "internalType": "uint256",
          "name": "",
          "type": "uint256"
        },
        {
          "internalType": "address",
          "name": "",
          "type": "address"
        }
      ],
      "stateMutability": "view",
      "type": "function"
    },
    {
      "inputs": [],
      "name": "getOwner",
      "outputs": [
        {
          "internalType": "address",
          "name": "",
          "type": "address"
        }
      ],
      "stateMutability": "view",
      "type": "function"
    },
    {
      "inputs": [
        {
          "internalType": "address",
          "name": "_voter",
          "type": "address"
        }
      ],
      "name": "getVoterInfo",
      "outputs": [
        {
          "internalType": "string",
          "name": "",
          "type": "string"
        },
        {
          "internalType": "uint256",
          "name": "",
          "type": "uint256"
        },
        {
          "internalType": "address",
          "name": "",
          "type": "address"
        },
        {
          "internalType": "uint256",
          "name": "",
          "type": "uint256"
        },
        {
          "internalType": "string",
          "name": "",
          "type": "string"
        },
        {
          "internalType": "uint256",
          "name": "",
          "type": "uint256"
        }
      ],
      "stateMutability": "view",
      "type": "function"
    },
    {
      "inputs": [],
      "name": "nextCandidateId",
      "outputs": [
        {
          "internalType": "uint256",
          "name": "",
          "type": "uint256"
        }
      ],
      "stateMutability": "view",
      "type": "function"
    },
    {
      "inputs": [],
      "name": "nextVoterId",
      "outputs": [
        {
          "internalType": "uint256",
          "name": "",
          "type": "uint256"
        }
      ],
      "stateMutability": "view",
      "type": "function"
    },
    {
      "inputs": [],
      "name": "reset",
      "outputs": [],
      "stateMutability": "nonpayable",
      "type": "function"
    },
    {
      "inputs": [],
      "name": "result",
      "outputs": [
        {
          "internalType": "uint256",
          "name": "",
          "type": "uint256"
        },
        {
          "internalType": "string",
          "name": "",
          "type": "string"
        },
        {
          "internalType": "uint256",
          "name": "",
          "type": "uint256"
        }
      ],
      "stateMutability": "view",
      "type": "function"
    },
    {
      "inputs": [],
      "name": "startTime",
      "outputs": [
        {
          "internalType": "uint256",
          "name": "",
          "type": "uint256"
        }
      ],
      "stateMutability": "view",
      "type": "function"
    },
    {
      "inputs": [],
      "name": "stopVoting",
      "outputs": [
        {
          "internalType": "bool",
          "name": "",
          "type": "bool"
        }
      ],
      "stateMutability": "view",
      "type": "function"
    },
    {
      "inputs": [
        {
          "internalType": "uint256",
          "name": "_id",
          "type": "uint256"
        },
        {
          "internalType": "string",
          "name": "_name",
          "type": "string"
        },
        {
          "internalType": "string",
          "name": "_party",
          "type": "string"
        },
        {
          "internalType": "uint256",
          "name": "_age",
          "type": "uint256"
        },
        {
          "internalType": "string",
          "name": "_gender",
          "type": "string"
        }
      ],
      "name": "updateCandidate",
      "outputs": [],
      "stateMutability": "nonpayable",
      "type": "function"
    },
    {
      "inputs": [
        {
          "internalType": "uint256",
          "name": "_id",
          "type": "uint256"
        },
        {
          "internalType": "string",
          "name": "_name",
          "type": "string"
        },
        {
          "internalType": "uint256",
          "name": "_age",
          "type": "uint256"
        },
        {
          "internalType": "string",
          "name": "_gender",
          "type": "string"
        }
      ],
      "name": "updateVoter",
      "outputs": [],
      "stateMutability": "nonpayable",
      "type": "function"
    },
    {
      "inputs": [
        {
          "internalType": "uint256",
          "name": "_voterId",
          "type": "uint256"
        },
        {
          "internalType": "uint256",
          "name": "_id",
          "type": "uint256"
        }
      ],
      "name": "vote",
      "outputs": [],
      "stateMutability": "nonpayable",
      "type": "function"
    },
    {
      "inputs": [
        {
          "internalType": "uint256",
          "name": "",
          "type": "uint256"
        }
      ],
      "name": "voteArr",
      "outputs": [
        {
          "internalType": "string",
          "name": "name",
          "type": "string"
        },
        {
          "internalType": "uint256",
          "name": "age",
          "type": "uint256"
        },
        {
          "internalType": "uint256",
          "name": "voterId",
          "type": "uint256"
        },
        {
          "internalType": "string",
          "name": "gender",
          "type": "string"
        },
        {
          "internalType": "uint256",
          "name": "voteCandidateId",
          "type": "uint256"
        },
        {
          "internalType": "address",
          "name": "voterAddress",
          "type": "address"
        }
      ],
      "stateMutability": "view",
      "type": "function"
    },
    {
      "inputs": [
        {
          "internalType": "uint256",
          "name": "_startTime",
          "type": "uint256"
        },
        {
          "internalType": "uint256",
          "name": "_endTime",
          "type": "uint256"
        }
      ],
      "name": "voteTime",
      "outputs": [],
      "stateMutability": "nonpayable",
      "type": "function"
    },
    {
      "inputs": [],
      "name": "voterList",
      "outputs": [
        {
          "components": [
            {
              "internalType": "string",
              "name": "name",
              "type": "string"
            },
            {
              "internalType": "uint256",
              "name": "age",
              "type": "uint256"
            },
            {
              "internalType": "uint256",
              "name": "voterId",
              "type": "uint256"
            },
            {
              "internalType": "string",
              "name": "gender",
              "type": "string"
            },
            {
              "internalType": "uint256",
              "name": "voteCandidateId",
              "type": "uint256"
            },
            {
              "internalType": "address",
              "name": "voterAddress",
              "type": "address"
            }
          ],
          "internalType": "struct Vote.Voter[]",
          "name": "",
          "type": "tuple[]"
        }
      ],
      "stateMutability": "view",
      "type": "function"
    },
    {
      "inputs": [
        {
          "internalType": "string",
          "name": "_name",
          "type": "string"
        },
        {
          "internalType": "uint256",
          "name": "_age",
          "type": "uint256"
        },
        {
          "internalType": "string",
          "name": "_gender",
          "type": "string"
        }
      ],
      "name": "voterRegister",
      "outputs": [],
      "stateMutability": "nonpayable",
      "type": "function"
    },
    {
      "inputs": [],
      "name": "votingStatus",
      "outputs": [
        {
          "internalType": "string",
          "name": "",
          "type": "string"
        }
      ],
      "stateMutability": "view",
      "type": "function"
    }
  ],
  "bytecode": "0x608060405260018055600160025534801561001957600080fd5b50336000806101000a81548173ffffffffffffffffffffffffffffffffffffffff021916908373ffffffffffffffffffffffffffffffffffffffff160217905550614ce6806100696000396000f3fe608060405234801561001057600080fd5b50600436106101585760003560e01c80638a9c22e4116100c3578063caa6fea41161007c578063caa6fea4146103cc578063cf5ce2e7146103d6578063d16ff4c8146103f2578063d826f88f14610410578063f38f1ad21461041a578063fab2f86b1461043657610158565b80638a9c22e41461030957806393e5fed2146103275780639a8a0db0146103435780639ed1f2551461035f578063a087cf1a14610394578063b384abef146103b057610158565b8063498ea44111610115578063498ea4411461023d5780635685efcf1461025b578063653721471461029157806365ca2be3146102b157806378e97925146102cd578063893d20e8146102eb57610158565b806309203eb61461015d57806319f41a40146101925780631e620cd4146101b057806324089918146101cc57806328bde1e1146101ea5780633197cbb61461021f575b600080fd5b610177600480360381019061017291906136a6565b610454565b604051610189969594939291906137b3565b60405180910390f35b61019a6105d0565b6040516101a79190613822565b60405180910390f35b6101ca60048036038101906101c591906136a6565b6106ca565b005b6101d4610a31565b6040516101e191906139fe565b60405180910390f35b61020460048036038101906101ff9190613a4c565b610c28565b60405161021696959493929190613a79565b60405180910390f35b610227610fd0565b6040516102349190613aef565b60405180910390f35b610245610fd6565b6040516102529190613c76565b60405180910390f35b610275600480360381019061027091906136a6565b61125f565b6040516102889796959493929190613c98565b60405180910390f35b610299611469565b6040516102a893929190613d1c565b60405180910390f35b6102cb60048036038101906102c69190613d5a565b61157c565b005b6102d561164f565b6040516102e29190613aef565b60405180910390f35b6102f3611655565b6040516103009190613d9a565b60405180910390f35b61031161167e565b60405161031e9190613aef565b60405180910390f35b610341600480360381019061033c9190613e1a565b611684565b005b61035d600480360381019061035891906136a6565b611997565b005b61037960048036038101906103749190613a4c565b611cc9565b60405161038b96959493929190613eaf565b60405180910390f35b6103ae60048036038101906103a99190613f1e565b611fbb565b005b6103ca60048036038101906103c59190613d5a565b6123a1565b005b6103d46127b3565b005b6103f060048036038101906103eb9190613fc5565b6127d0565b005b6103fa612b5a565b6040516104079190613aef565b60405180910390f35b610418612b60565b005b610434600480360381019061042f919061408e565b612de3565b005b61043e613240565b60405161044b9190614185565b60405180910390f35b6009818154811061046457600080fd5b9060005260206000209060060201600091509050806000018054610487906141cf565b80601f01602080910402602001604051908101604052809291908181526020018280546104b3906141cf565b80156105005780601f106104d557610100808354040283529160200191610500565b820191906000526020600020905b8154815290600101906020018083116104e357829003601f168201915b505050505090806001015490806002015490806003018054610521906141cf565b80601f016020809104026020016040519081016040528092919081815260200182805461054d906141cf565b801561059a5780601f1061056f5761010080835404028352916020019161059a565b820191906000526020600020905b81548152906001019060200180831161057d57829003601f168201915b5050505050908060040154908060050160009054906101000a900473ffffffffffffffffffffffffffffffffffffffff16905086565b6060600060035403610619576040518060400160405280600b81526020017f4e6f74205374617274656400000000000000000000000000000000000000000081525090506106c7565b60006003541415801561062d575042600454115b801561064c575060001515600760009054906101000a900460ff161515145b1561068e576040518060400160405280600b81526020017f496e2070726f677265737300000000000000000000000000000000000000000081525090506106c7565b6040518060400160405280600581526020017f456e64656400000000000000000000000000000000000000000000000000000081525090505b90565b6106d333613253565b15610713576040517f08c379a000000000000000000000000000000000000000000000000000000000815260040161070a9061424c565b60405180910390fd5b6006600082815260200190815260200160002060050160009054906101000a900473ffffffffffffffffffffffffffffffffffffffff1673ffffffffffffffffffffffffffffffffffffffff163373ffffffffffffffffffffffffffffffffffffffff16146107b7576040517f08c379a00000000000000000000000000000000000000000000000000000000081526004016107ae906142b8565b60405180910390fd5b60066000828152602001908152602001600020600080820160006107db91906134c5565b6001820160006107eb91906134c5565b600282016000905560038201600061080391906134c5565b60048201600090556005820160006101000a81549073ffffffffffffffffffffffffffffffffffffffff021916905560068201600090555050600061084782613308565b905060008190505b6001600a805490506108619190614307565b81101561099257600a600182610877919061433b565b815481106108885761088761436f565b5b9060005260206000209060070201600a82815481106108aa576108a961436f565b5b9060005260206000209060070201600082018160000190816108cc919061458f565b50600182018160010190816108e1919061458f565b506002820154816002015560038201816003019081610900919061458f565b50600482015481600401556005820160009054906101000a900473ffffffffffffffffffffffffffffffffffffffff168160050160006101000a81548173ffffffffffffffffffffffffffffffffffffffff021916908373ffffffffffffffffffffffffffffffffffffffff16021790555060068201548160060155905050808061098a90614677565b91505061084f565b50600a8054806109a5576109a46146bf565b5b6001900381819060005260206000209060070201600080820160006109ca91906134c5565b6001820160006109da91906134c5565b60028201600090556003820160006109f291906134c5565b60048201600090556005820160006101000a81549073ffffffffffffffffffffffffffffffffffffffff02191690556006820160009055505090555050565b60606009805480602002602001604051908101604052809291908181526020016000905b82821015610c1f57838290600052602060002090600602016040518060c0016040529081600082018054610a88906141cf565b80601f0160208091040260200160405190810160405280929190818152602001828054610ab4906141cf565b8015610b015780601f10610ad657610100808354040283529160200191610b01565b820191906000526020600020905b815481529060010190602001808311610ae457829003601f168201915b505050505081526020016001820154815260200160028201548152602001600382018054610b2e906141cf565b80601f0160208091040260200160405190810160405280929190818152602001828054610b5a906141cf565b8015610ba75780601f10610b7c57610100808354040283529160200191610ba7565b820191906000526020600020905b815481529060010190602001808311610b8a57829003601f168201915b50505050508152602001600482015481526020016005820160009054906101000a900473ffffffffffffffffffffffffffffffffffffffff1673ffffffffffffffffffffffffffffffffffffffff1673ffffffffffffffffffffffffffffffffffffffff168152505081526020019060010190610a55565b50505050905090565b6060806000606060008060608060006060600080600080600090505b600a80549050811015610fad57600a8181548110610c6557610c6461436f565b5b906000526020600020906007020160050160009054906101000a900473ffffffffffffffffffffffffffffffffffffffff1673ffffffffffffffffffffffffffffffffffffffff168f73ffffffffffffffffffffffffffffffffffffffff1603610f9a57600a8181548110610cdd57610cdc61436f565b5b90600052602060002090600702016000018054610cf9906141cf565b80601f0160208091040260200160405190810160405280929190818152602001828054610d25906141cf565b8015610d725780601f10610d4757610100808354040283529160200191610d72565b820191906000526020600020905b815481529060010190602001808311610d5557829003601f168201915b50505050509750600a8181548110610d8d57610d8c61436f565b5b90600052602060002090600702016001018054610da9906141cf565b80601f0160208091040260200160405190810160405280929190818152602001828054610dd5906141cf565b8015610e225780601f10610df757610100808354040283529160200191610e22565b820191906000526020600020905b815481529060010190602001808311610e0557829003601f168201915b50505050509650600a8181548110610e3d57610e3c61436f565b5b9060005260206000209060070201600201549550600a8181548110610e6557610e6461436f565b5b90600052602060002090600702016003018054610e81906141cf565b80601f0160208091040260200160405190810160405280929190818152602001828054610ead906141cf565b8015610efa5780601f10610ecf57610100808354040283529160200191610efa565b820191906000526020600020905b815481529060010190602001808311610edd57829003601f168201915b50505050509450600a8181548110610f1557610f1461436f565b5b9060005260206000209060070201600401549350600a8181548110610f3d57610f3c61436f565b5b906000526020600020906007020160050160009054906101000a900473ffffffffffffffffffffffffffffffffffffffff169250600a8181548110610f8557610f8461436f565b5b90600052602060002090600702016006015491505b8080610fa590614677565b915050610c44565b508686868686869c509c509c509c509c509c505050505050505091939550919395565b60045481565b6060600a805480602002602001604051908101604052809291908181526020016000905b8282101561125657838290600052602060002090600702016040518060e001604052908160008201805461102d906141cf565b80601f0160208091040260200160405190810160405280929190818152602001828054611059906141cf565b80156110a65780601f1061107b576101008083540402835291602001916110a6565b820191906000526020600020905b81548152906001019060200180831161108957829003601f168201915b505050505081526020016001820180546110bf906141cf565b80601f01602080910402602001604051908101604052809291908181526020018280546110eb906141cf565b80156111385780601f1061110d57610100808354040283529160200191611138565b820191906000526020600020905b81548152906001019060200180831161111b57829003601f168201915b505050505081526020016002820154815260200160038201805461115b906141cf565b80601f0160208091040260200160405190810160405280929190818152602001828054611187906141cf565b80156111d45780601f106111a9576101008083540402835291602001916111d4565b820191906000526020600020905b8154815290600101906020018083116111b757829003601f168201915b50505050508152602001600482015481526020016005820160009054906101000a900473ffffffffffffffffffffffffffffffffffffffff1673ffffffffffffffffffffffffffffffffffffffff1673ffffffffffffffffffffffffffffffffffffffff16815260200160068201548152505081526020019060010190610ffa565b50505050905090565b600a818154811061126f57600080fd5b9060005260206000209060070201600091509050806000018054611292906141cf565b80601f01602080910402602001604051908101604052809291908181526020018280546112be906141cf565b801561130b5780601f106112e05761010080835404028352916020019161130b565b820191906000526020600020905b8154815290600101906020018083116112ee57829003601f168201915b505050505090806001018054611320906141cf565b80601f016020809104026020016040519081016040528092919081815260200182805461134c906141cf565b80156113995780601f1061136e57610100808354040283529160200191611399565b820191906000526020600020905b81548152906001019060200180831161137c57829003601f168201915b5050505050908060020154908060030180546113b4906141cf565b80601f01602080910402602001604051908101604052809291908181526020018280546113e0906141cf565b801561142d5780601f106114025761010080835404028352916020019161142d565b820191906000526020600020905b81548152906001019060200180831161141057829003601f168201915b5050505050908060040154908060050160009054906101000a900473ffffffffffffffffffffffffffffffffffffffff16908060060154905087565b60006060600080600090506000805b6002548110156114ca5760086000828152602001908152602001600020548310156114b757600860008281526020019081526020016000205492508091505b80806114c290614677565b915050611478565b508060066000838152602001908152602001600020600001838180546114ef906141cf565b80601f016020809104026020016040519081016040528092919081815260200182805461151b906141cf565b80156115685780601f1061153d57610100808354040283529160200191611568565b820191906000526020600020905b81548152906001019060200180831161154b57829003601f168201915b505050505091509450945094505050909192565b60008054906101000a900473ffffffffffffffffffffffffffffffffffffffff1673ffffffffffffffffffffffffffffffffffffffff163373ffffffffffffffffffffffffffffffffffffffff161461160a576040517f08c379a000000000000000000000000000000000000000000000000000000000815260040161160190614760565b60405180910390fd5b8142611616919061433b565b6003819055508060035461162a919061433b565b6004819055506000600760006101000a81548160ff0219169083151502179055505050565b60035481565b60008060009054906101000a900473ffffffffffffffffffffffffffffffffffffffff16905090565b60015481565b61168d3361338c565b6116cc576040517f08c379a00000000000000000000000000000000000000000000000000000000081526004016116c3906147cc565b60405180910390fd5b6012831015611710576040517f08c379a000000000000000000000000000000000000000000000000000000000815260040161170790614838565b60405180910390fd5b6040518060c0016040528086868080601f016020809104026020016040519081016040528093929190818152602001838380828437600081840152601f19601f820116905080830192505050505050508152602001848152602001600154815260200183838080601f016020809104026020016040519081016040528093929190818152602001838380828437600081840152601f19601f820116905080830192505050505050508152602001600081526020013373ffffffffffffffffffffffffffffffffffffffff1681525060056000600154815260200190815260200160002060008201518160000190816118089190614858565b50602082015181600101556040820151816002015560608201518160030190816118329190614858565b506080820151816004015560a08201518160050160006101000a81548173ffffffffffffffffffffffffffffffffffffffff021916908373ffffffffffffffffffffffffffffffffffffffff16021790555090505060096005600060015481526020019081526020016000209080600181540180825580915050600190039060005260206000209060060201600090919091909150600082018160000190816118db919061458f565b50600182015481600101556002820154816002015560038201816003019081611904919061458f565b50600482015481600401556005820160009054906101000a900473ffffffffffffffffffffffffffffffffffffffff168160050160006101000a81548173ffffffffffffffffffffffffffffffffffffffff021916908373ffffffffffffffffffffffffffffffffffffffff16021790555050506001600081548092919061198b90614677565b91905055505050505050565b6119a03361338c565b156119e0576040517f08c379a00000000000000000000000000000000000000000000000000000000081526004016119d79061424c565b60405180910390fd5b6005600082815260200190815260200160002060050160009054906101000a900473ffffffffffffffffffffffffffffffffffffffff1673ffffffffffffffffffffffffffffffffffffffff163373ffffffffffffffffffffffffffffffffffffffff1614611a84576040517f08c379a0000000000000000000000000000000000000000000000000000000008152600401611a7b906142b8565b60405180910390fd5b6005600082815260200190815260200160002060008082016000611aa891906134c5565b60018201600090556002820160009055600382016000611ac891906134c5565b60048201600090556005820160006101000a81549073ffffffffffffffffffffffffffffffffffffffff021916905550506000611b0482613441565b905060008190505b6001600980549050611b1e9190614307565b811015611c3a576009600182611b34919061433b565b81548110611b4557611b4461436f565b5b906000526020600020906006020160098281548110611b6757611b6661436f565b5b906000526020600020906006020160008201816000019081611b89919061458f565b50600182015481600101556002820154816002015560038201816003019081611bb2919061458f565b50600482015481600401556005820160009054906101000a900473ffffffffffffffffffffffffffffffffffffffff168160050160006101000a81548173ffffffffffffffffffffffffffffffffffffffff021916908373ffffffffffffffffffffffffffffffffffffffff1602179055509050508080611c3290614677565b915050611b0c565b506009805480611c4d57611c4c6146bf565b5b600190038181906000526020600020906006020160008082016000611c7291906134c5565b60018201600090556002820160009055600382016000611c9291906134c5565b60048201600090556005820160006101000a81549073ffffffffffffffffffffffffffffffffffffffff0219169055505090555050565b606060008060006060600060608060008060008060005b600980549050811015611f995760098181548110611d0157611d0061436f565b5b906000526020600020906006020160050160009054906101000a900473ffffffffffffffffffffffffffffffffffffffff1673ffffffffffffffffffffffffffffffffffffffff168e73ffffffffffffffffffffffffffffffffffffffff1603611f865760098181548110611d7957611d7861436f565b5b90600052602060002090600602016000018054611d95906141cf565b80601f0160208091040260200160405190810160405280929190818152602001828054611dc1906141cf565b8015611e0e5780601f10611de357610100808354040283529160200191611e0e565b820191906000526020600020905b815481529060010190602001808311611df157829003601f168201915b5050505050965060098181548110611e2957611e2861436f565b5b906000526020600020906006020160050160009054906101000a900473ffffffffffffffffffffffffffffffffffffffff16945060098181548110611e7157611e7061436f565b5b906000526020600020906006020160040154935060098181548110611e9957611e9861436f565b5b906000526020600020906006020160020154925060098181548110611ec157611ec061436f565b5b90600052602060002090600602016003018054611edd906141cf565b80601f0160208091040260200160405190810160405280929190818152602001828054611f09906141cf565b8015611f565780601f10611f2b57610100808354040283529160200191611f56565b820191906000526020600020905b815481529060010190602001808311611f3957829003601f168201915b5050505050955060098181548110611f7157611f7061436f565b5b90600052602060002090600602016001015491505b8080611f9190614677565b915050611ce0565b508583858488859b509b509b509b509b509b5050505050505091939550919395565b611fc43361338c565b15612004576040517f08c379a0000000000000000000000000000000000000000000000000000000008152600401611ffb90614976565b60405180910390fd5b600060035414612049576040517f08c379a0000000000000000000000000000000000000000000000000000000008152600401612040906149e2565b60405180910390fd5b6005600087815260200190815260200160002060050160009054906101000a900473ffffffffffffffffffffffffffffffffffffffff1673ffffffffffffffffffffffffffffffffffffffff163373ffffffffffffffffffffffffffffffffffffffff16146120ed576040517f08c379a00000000000000000000000000000000000000000000000000000000081526004016120e4906142b8565b60405180910390fd5b6012831015612131576040517f08c379a000000000000000000000000000000000000000000000000000000000815260040161212890614a74565b60405180910390fd5b6040518060c0016040528086868080601f016020809104026020016040519081016040528093929190818152602001838380828437600081840152601f19601f82011690508083019250505050505050815260200184815260200187815260200183838080601f016020809104026020016040519081016040528093929190818152602001838380828437600081840152601f19601f820116905080830192505050505050508152602001600081526020013373ffffffffffffffffffffffffffffffffffffffff168152506005600088815260200190815260200160002060008201518160000190816122259190614858565b506020820151816001015560408201518160020155606082015181600301908161224f9190614858565b506080820151816004015560a08201518160050160006101000a81548173ffffffffffffffffffffffffffffffffffffffff021916908373ffffffffffffffffffffffffffffffffffffffff16021790555090505060006122af87613441565b905060056000888152602001908152602001600020600982815481106122d8576122d761436f565b5b9060005260206000209060060201600082018160000190816122fa919061458f565b50600182015481600101556002820154816002015560038201816003019081612323919061458f565b50600482015481600401556005820160009054906101000a900473ffffffffffffffffffffffffffffffffffffffff168160050160006101000a81548173ffffffffffffffffffffffffffffffffffffffff021916908373ffffffffffffffffffffffffffffffffffffffff16021790555090505050505050505050565b426004541180156123bf5750600760009054906101000a900460ff16155b6123fe576040517f08c379a00000000000000000000000000000000000000000000000000000000081526004016123f590614ae0565b60405180910390fd5b6000600560008481526020019081526020016000206004015414612457576040517f08c379a000000000000000000000000000000000000000000000000000000000815260040161244e90614b4c565b60405180910390fd5b3373ffffffffffffffffffffffffffffffffffffffff166005600084815260200190815260200160002060050160009054906101000a900473ffffffffffffffffffffffffffffffffffffffff1673ffffffffffffffffffffffffffffffffffffffff16146124fb576040517f08c379a00000000000000000000000000000000000000000000000000000000081526004016124f290614bb8565b60405180910390fd5b600060035403612540576040517f08c379a000000000000000000000000000000000000000000000000000000000815260040161253790614c24565b60405180910390fd5b80600560008481526020019081526020016000206004018190555060086000828152602001908152602001600020600081548092919061257f90614677565b91905055506006600082815260200190815260200160002060060160008154809291906125ab90614677565b919050555060006125bb83613441565b905060056000848152602001908152602001600020600982815481106125e4576125e361436f565b5b906000526020600020906006020160008201816000019081612606919061458f565b5060018201548160010155600282015481600201556003820181600301908161262f919061458f565b50600482015481600401556005820160009054906101000a900473ffffffffffffffffffffffffffffffffffffffff168160050160006101000a81548173ffffffffffffffffffffffffffffffffffffffff021916908373ffffffffffffffffffffffffffffffffffffffff16021790555090505060006126af83613308565b905060066000848152602001908152602001600020600a82815481106126d8576126d761436f565b5b9060005260206000209060070201600082018160000190816126fa919061458f565b506001820181600101908161270f919061458f565b50600282015481600201556003820181600301908161272e919061458f565b50600482015481600401556005820160009054906101000a900473ffffffffffffffffffffffffffffffffffffffff168160050160006101000a81548173ffffffffffffffffffffffffffffffffffffffff021916908373ffffffffffffffffffffffffffffffffffffffff1602179055506006820154816006015590505050505050565b6001600760006101000a81548160ff021916908315150217905550565b6127d933613253565b612818576040517f08c379a000000000000000000000000000000000000000000000000000000000815260040161280f906147cc565b60405180910390fd5b601283101561285c576040517f08c379a000000000000000000000000000000000000000000000000000000000815260040161285390614a74565b60405180910390fd5b6040518060e0016040528088888080601f016020809104026020016040519081016040528093929190818152602001838380828437600081840152601f19601f82011690508083019250505050505050815260200186868080601f016020809104026020016040519081016040528093929190818152602001838380828437600081840152601f19601f82011690508083019250505050505050815260200184815260200183838080601f016020809104026020016040519081016040528093929190818152602001838380828437600081840152601f19601f82011690508083019250505050505050815260200160025481526020013373ffffffffffffffffffffffffffffffffffffffff1681526020016000815250600660006002548152602001908152602001600020600082015181600001908161299e9190614858565b5060208201518160010190816129b49190614858565b506040820151816002015560608201518160030190816129d49190614858565b506080820151816004015560a08201518160050160006101000a81548173ffffffffffffffffffffffffffffffffffffffff021916908373ffffffffffffffffffffffffffffffffffffffff16021790555060c08201518160060155905050600a600660006002548152602001908152602001600020908060018154018082558091505060019003906000526020600020906007020160009091909190915060008201816000019081612a87919061458f565b5060018201816001019081612a9c919061458f565b506002820154816002015560038201816003019081612abb919061458f565b50600482015481600401556005820160009054906101000a900473ffffffffffffffffffffffffffffffffffffffff168160050160006101000a81548173ffffffffffffffffffffffffffffffffffffffff021916908373ffffffffffffffffffffffffffffffffffffffff16021790555060068201548160060155505060026000815480929190612b4c90614677565b919050555050505050505050565b60025481565b60008054906101000a900473ffffffffffffffffffffffffffffffffffffffff1673ffffffffffffffffffffffffffffffffffffffff163373ffffffffffffffffffffffffffffffffffffffff1614612bee576040517f08c379a0000000000000000000000000000000000000000000000000000000008152600401612be590614760565b60405180910390fd5b426004541080612c0a5750600760009054906101000a900460ff165b612c49576040517f08c379a0000000000000000000000000000000000000000000000000000000008152600401612c4090614c90565b60405180910390fd5b6000600190505b6002548111612cf1576006600082815260200190815260200160002060008082016000612c7d91906134c5565b600182016000612c8d91906134c5565b6002820160009055600382016000612ca591906134c5565b60048201600090556005820160006101000a81549073ffffffffffffffffffffffffffffffffffffffff0219169055600682016000905550508080612ce990614677565b915050612c50565b506000600190505b6001548111612d8a576005600082815260200190815260200160002060008082016000612d2691906134c5565b60018201600090556002820160009055600382016000612d4691906134c5565b60048201600090556005820160006101000a81549073ffffffffffffffffffffffffffffffffffffffff021916905550508080612d8290614677565b915050612cf9565b50600180819055506001600281905550600060038190555060006004819055506000600760006101000a81548160ff02191690831515021790555060096000612dd39190613505565b600a6000612de19190613529565b565b612dec33613253565b15612e2c576040517f08c379a0000000000000000000000000000000000000000000000000000000008152600401612e2390614976565b60405180910390fd5b600060035414612e71576040517f08c379a0000000000000000000000000000000000000000000000000000000008152600401612e68906149e2565b60405180910390fd5b6006600089815260200190815260200160002060050160009054906101000a900473ffffffffffffffffffffffffffffffffffffffff1673ffffffffffffffffffffffffffffffffffffffff163373ffffffffffffffffffffffffffffffffffffffff1614612f15576040517f08c379a0000000000000000000000000000000000000000000000000000000008152600401612f0c906142b8565b60405180910390fd5b6012831015612f59576040517f08c379a0000000000000000000000000000000000000000000000000000000008152600401612f5090614a74565b60405180910390fd5b6040518060e0016040528088888080601f016020809104026020016040519081016040528093929190818152602001838380828437600081840152601f19601f82011690508083019250505050505050815260200186868080601f016020809104026020016040519081016040528093929190818152602001838380828437600081840152601f19601f82011690508083019250505050505050815260200184815260200183838080601f016020809104026020016040519081016040528093929190818152602001838380828437600081840152601f19601f8201169050808301925050505050505081526020018981526020013373ffffffffffffffffffffffffffffffffffffffff1681526020016000815250600660008a815260200190815260200160002060008201518160000190816130979190614858565b5060208201518160010190816130ad9190614858565b506040820151816002015560608201518160030190816130cd9190614858565b506080820151816004015560a08201518160050160006101000a81548173ffffffffffffffffffffffffffffffffffffffff021916908373ffffffffffffffffffffffffffffffffffffffff16021790555060c08201518160060155905050600061313789613308565b9050600660008a8152602001908152602001600020600a82815481106131605761315f61436f565b5b906000526020600020906007020160008201816000019081613182919061458f565b5060018201816001019081613197919061458f565b5060028201548160020155600382018160030190816131b6919061458f565b50600482015481600401556005820160009054906101000a900473ffffffffffffffffffffffffffffffffffffffff168160050160006101000a81548173ffffffffffffffffffffffffffffffffffffffff021916908373ffffffffffffffffffffffffffffffffffffffff16021790555060068201548160060155905050505050505050505050565b600760009054906101000a900460ff1681565b600080600090505b600a805490508110156132fd578273ffffffffffffffffffffffffffffffffffffffff16600a82815481106132935761329261436f565b5b906000526020600020906007020160050160009054906101000a900473ffffffffffffffffffffffffffffffffffffffff1673ffffffffffffffffffffffffffffffffffffffff16036132ea576000915050613303565b80806132f590614677565b91505061325b565b50600190505b919050565b600080600090505b6001600a805490506133229190614307565b8110156133715782600a828154811061333e5761333d61436f565b5b9060005260206000209060070201600401540361335e5780915050613387565b808061336990614677565b915050613310565b506001600a805490506133849190614307565b90505b919050565b600080600090505b600980549050811015613436578273ffffffffffffffffffffffffffffffffffffffff16600982815481106133cc576133cb61436f565b5b906000526020600020906006020160050160009054906101000a900473ffffffffffffffffffffffffffffffffffffffff1673ffffffffffffffffffffffffffffffffffffffff160361342357600091505061343c565b808061342e90614677565b915050613394565b50600190505b919050565b600080600090505b600160098054905061345b9190614307565b8110156134aa5782600982815481106134775761347661436f565b5b9060005260206000209060060201600201540361349757809150506134c0565b80806134a290614677565b915050613449565b5060016009805490506134bd9190614307565b90505b919050565b5080546134d1906141cf565b6000825580601f106134e35750613502565b601f016020900490600052602060002090810190613501919061354d565b5b50565b5080546000825560060290600052602060002090810190613526919061356a565b50565b508054600082556007029060005260206000209081019061354a91906135e0565b50565b5b8082111561356657600081600090555060010161354e565b5090565b5b808211156135dc576000808201600061358491906134c5565b600182016000905560028201600090556003820160006135a491906134c5565b60048201600090556005820160006101000a81549073ffffffffffffffffffffffffffffffffffffffff02191690555060060161356b565b5090565b5b8082111561366257600080820160006135fa91906134c5565b60018201600061360a91906134c5565b600282016000905560038201600061362291906134c5565b60048201600090556005820160006101000a81549073ffffffffffffffffffffffffffffffffffffffff02191690556006820160009055506007016135e1565b5090565b600080fd5b600080fd5b6000819050919050565b61368381613670565b811461368e57600080fd5b50565b6000813590506136a08161367a565b92915050565b6000602082840312156136bc576136bb613666565b5b60006136ca84828501613691565b91505092915050565b600081519050919050565b600082825260208201905092915050565b60005b8381101561370d5780820151818401526020810190506136f2565b60008484015250505050565b6000601f19601f8301169050919050565b6000613735826136d3565b61373f81856136de565b935061374f8185602086016136ef565b61375881613719565b840191505092915050565b61376c81613670565b82525050565b600073ffffffffffffffffffffffffffffffffffffffff82169050919050565b600061379d82613772565b9050919050565b6137ad81613792565b82525050565b600060c08201905081810360008301526137cd818961372a565b90506137dc6020830188613763565b6137e96040830187613763565b81810360608301526137fb818661372a565b905061380a6080830185613763565b61381760a08301846137a4565b979650505050505050565b6000602082019050818103600083015261383c818461372a565b905092915050565b600081519050919050565b600082825260208201905092915050565b6000819050602082019050919050565b600082825260208201905092915050565b600061388c826136d3565b6138968185613870565b93506138a68185602086016136ef565b6138af81613719565b840191505092915050565b6138c381613670565b82525050565b6138d281613792565b82525050565b600060c08301600083015184820360008601526138f58282613881565b915050602083015161390a60208601826138ba565b50604083015161391d60408601826138ba565b50606083015184820360608601526139358282613881565b915050608083015161394a60808601826138ba565b5060a083015161395d60a08601826138c9565b508091505092915050565b600061397483836138d8565b905092915050565b6000602082019050919050565b600061399482613844565b61399e818561384f565b9350836020820285016139b085613860565b8060005b858110156139ec57848403895281516139cd8582613968565b94506139d88361397c565b925060208a019950506001810190506139b4565b50829750879550505050505092915050565b60006020820190508181036000830152613a188184613989565b905092915050565b613a2981613792565b8114613a3457600080fd5b50565b600081359050613a4681613a20565b92915050565b600060208284031215613a6257613a61613666565b5b6000613a7084828501613a37565b91505092915050565b600060c0820190508181036000830152613a93818961372a565b90508181036020830152613aa7818861372a565b9050613ab66040830187613763565b8181036060830152613ac8818661372a565b9050613ad76080830185613763565b613ae460a08301846137a4565b979650505050505050565b6000602082019050613b046000830184613763565b92915050565b600081519050919050565b600082825260208201905092915050565b6000819050602082019050919050565b600060e0830160008301518482036000860152613b538282613881565b91505060208301518482036020860152613b6d8282613881565b9150506040830151613b8260408601826138ba565b5060608301518482036060860152613b9a8282613881565b9150506080830151613baf60808601826138ba565b5060a0830151613bc260a08601826138c9565b5060c0830151613bd560c08601826138ba565b508091505092915050565b6000613bec8383613b36565b905092915050565b6000602082019050919050565b6000613c0c82613b0a565b613c168185613b15565b935083602082028501613c2885613b26565b8060005b85811015613c645784840389528151613c458582613be0565b9450613c5083613bf4565b925060208a01995050600181019050613c2c565b50829750879550505050505092915050565b60006020820190508181036000830152613c908184613c01565b905092915050565b600060e0820190508181036000830152613cb2818a61372a565b90508181036020830152613cc6818961372a565b9050613cd56040830188613763565b8181036060830152613ce7818761372a565b9050613cf66080830186613763565b613d0360a08301856137a4565b613d1060c0830184613763565b98975050505050505050565b6000606082019050613d316000830186613763565b8181036020830152613d43818561372a565b9050613d526040830184613763565b949350505050565b60008060408385031215613d7157613d70613666565b5b6000613d7f85828601613691565b9250506020613d9085828601613691565b9150509250929050565b6000602082019050613daf60008301846137a4565b92915050565b600080fd5b600080fd5b600080fd5b60008083601f840112613dda57613dd9613db5565b5b8235905067ffffffffffffffff811115613df757613df6613dba565b5b602083019150836001820283011115613e1357613e12613dbf565b5b9250929050565b600080600080600060608688031215613e3657613e35613666565b5b600086013567ffffffffffffffff811115613e5457613e5361366b565b5b613e6088828901613dc4565b95509550506020613e7388828901613691565b935050604086013567ffffffffffffffff811115613e9457613e9361366b565b5b613ea088828901613dc4565b92509250509295509295909350565b600060c0820190508181036000830152613ec9818961372a565b9050613ed86020830188613763565b613ee560408301876137a4565b613ef26060830186613763565b8181036080830152613f04818561372a565b9050613f1360a0830184613763565b979650505050505050565b60008060008060008060808789031215613f3b57613f3a613666565b5b6000613f4989828a01613691565b965050602087013567ffffffffffffffff811115613f6a57613f6961366b565b5b613f7689828a01613dc4565b95509550506040613f8989828a01613691565b935050606087013567ffffffffffffffff811115613faa57613fa961366b565b5b613fb689828a01613dc4565b92509250509295509295509295565b60008060008060008060006080888a031215613fe457613fe3613666565b5b600088013567ffffffffffffffff8111156140025761400161366b565b5b61400e8a828b01613dc4565b9750975050602088013567ffffffffffffffff8111156140315761403061366b565b5b61403d8a828b01613dc4565b955095505060406140508a828b01613691565b935050606088013567ffffffffffffffff8111156140715761407061366b565b5b61407d8a828b01613dc4565b925092505092959891949750929550565b60008060008060008060008060a0898b0312156140ae576140ad613666565b5b60006140bc8b828c01613691565b985050602089013567ffffffffffffffff8111156140dd576140dc61366b565b5b6140e98b828c01613dc4565b9750975050604089013567ffffffffffffffff81111561410c5761410b61366b565b5b6141188b828c01613dc4565b9550955050606061412b8b828c01613691565b935050608089013567ffffffffffffffff81111561414c5761414b61366b565b5b6141588b828c01613dc4565b92509250509295985092959890939650565b60008115159050919050565b61417f8161416a565b82525050565b600060208201905061419a6000830184614176565b92915050565b7f4e487b7100000000000000000000000000000000000000000000000000000000600052602260045260246000fd5b600060028204905060018216806141e757607f821691505b6020821081036141fa576141f96141a0565b5b50919050565b7f596f7520617265206e6f7420616c6c6f77656400000000000000000000000000600082015250565b60006142366013836136de565b915061424182614200565b602082019050919050565b6000602082019050818103600083015261426581614229565b9050919050565b7f596f7520617265206e6f7420737570706f73656420746f20646f207468697300600082015250565b60006142a2601f836136de565b91506142ad8261426c565b602082019050919050565b600060208201905081810360008301526142d181614295565b9050919050565b7f4e487b7100000000000000000000000000000000000000000000000000000000600052601160045260246000fd5b600061431282613670565b915061431d83613670565b9250828203905081811115614335576143346142d8565b5b92915050565b600061434682613670565b915061435183613670565b9250828201905080821115614369576143686142d8565b5b92915050565b7f4e487b7100000000000000000000000000000000000000000000000000000000600052603260045260246000fd5b6000815490506143ad816141cf565b9050919050565b7f4e487b7100000000000000000000000000000000000000000000000000000000600052604160045260246000fd5b60008190508160005260206000209050919050565b60006020601f8301049050919050565b600082821b905092915050565b6000600883026144457fffffffffffffffffffffffffffffffffffffffffffffffffffffffffffffffff82614408565b61444f8683614408565b95508019841693508086168417925050509392505050565b6000819050919050565b600061448c61448761448284613670565b614467565b613670565b9050919050565b6000819050919050565b6144a683614471565b6144ba6144b282614493565b848454614415565b825550505050565b600090565b6144cf6144c2565b6144da81848461449d565b505050565b5b818110156144fe576144f36000826144c7565b6001810190506144e0565b5050565b601f82111561454357614514816143e3565b61451d846143f8565b8101602085101561452c578190505b614540614538856143f8565b8301826144df565b50505b505050565b600082821c905092915050565b600061456660001984600802614548565b1980831691505092915050565b600061457f8383614555565b9150826002028217905092915050565b81810361459d575050614675565b6145a68261439e565b67ffffffffffffffff8111156145bf576145be6143b4565b5b6145c982546141cf565b6145d4828285614502565b6000601f83116001811461460357600084156145f1578287015490505b6145fb8582614573565b86555061466e565b601f198416614611876143e3565b965061461c866143e3565b60005b828110156146445784890154825560018201915060018501945060208101905061461f565b86831015614661578489015461465d601f891682614555565b8355505b6001600288020188555050505b5050505050505b565b600061468282613670565b91507fffffffffffffffffffffffffffffffffffffffffffffffffffffffffffffffff82036146b4576146b36142d8565b5b600182019050919050565b7f4e487b7100000000000000000000000000000000000000000000000000000000600052603160045260246000fd5b7f596f7520617265206e6f742066726f6d20456c656374696f6e20436f6d6d697360008201527f696f6e0000000000000000000000000000000000000000000000000000000000602082015250565b600061474a6023836136de565b9150614755826146ee565b604082019050919050565b600060208201905081810360008301526147798161473d565b9050919050565b7f596f75206861766520616c726561647920726567697374657264000000000000600082015250565b60006147b6601a836136de565b91506147c182614780565b602082019050919050565b600060208201905081810360008301526147e5816147a9565b9050919050565b7f596f7520617265206e6f7420656c696769626c6520746f20766f746500000000600082015250565b6000614822601c836136de565b915061482d826147ec565b602082019050919050565b6000602082019050818103600083015261485181614815565b9050919050565b614861826136d3565b67ffffffffffffffff81111561487a576148796143b4565b5b61488482546141cf565b61488f828285614502565b600060209050601f8311600181146148c257600084156148b0578287015190505b6148ba8582614573565b865550614922565b601f1984166148d0866143e3565b60005b828110156148f8578489015182556001820191506020850194506020810190506148d3565b868310156149155784890151614911601f891682614555565b8355505b6001600288020188555050505b505050505050565b7f596f7520617265206e6f7420696e20746865206c697372000000000000000000600082015250565b60006149606017836136de565b915061496b8261492a565b602082019050919050565b6000602082019050818103600083015261498f81614953565b9050919050565b7f566f74696e672068617320737461727465640000000000000000000000000000600082015250565b60006149cc6012836136de565b91506149d782614996565b602082019050919050565b600060208201905081810360008301526149fb816149bf565b9050919050565b7f596f7520617265206e6f7420656c696769626c6520746f20626520612063616e60008201527f6469646174650000000000000000000000000000000000000000000000000000602082015250565b6000614a5e6026836136de565b9150614a6982614a02565b604082019050919050565b60006020820190508181036000830152614a8d81614a51565b9050919050565b7f566f74696e67206973206f766572000000000000000000000000000000000000600082015250565b6000614aca600e836136de565b9150614ad582614a94565b602082019050919050565b60006020820190508181036000830152614af981614abd565b9050919050565b7f596f75206861766520616c726561647920766f74656400000000000000000000600082015250565b6000614b366016836136de565b9150614b4182614b00565b602082019050919050565b60006020820190508181036000830152614b6581614b29565b9050919050565b7f596f7520617265206e6f74206120766f74657200000000000000000000000000600082015250565b6000614ba26013836136de565b9150614bad82614b6c565b602082019050919050565b60006020820190508181036000830152614bd181614b95565b9050919050565b7f566f74696e6720686173206e6f74207374617274656400000000000000000000600082015250565b6000614c0e6016836136de565b9150614c1982614bd8565b602082019050919050565b60006020820190508181036000830152614c3d81614c01565b9050919050565b7f566f74696e672069736e2774206f766572000000000000000000000000000000600082015250565b6000614c7a6011836136de565b9150614c8582614c44565b602082019050919050565b60006020820190508181036000830152614ca981614c6d565b905091905056fea26469706673582212202db1c3539927e7a3cf7125ff9fa5e58d77e129a522cf242655ff41bf5816bcde64736f6c63430008110033",
  "linkReferences": {},
  "deployedLinkReferences": {}
}